:100000000C9462000C948A000C948A000C948A0070
:100010000C948A000C948A000C948A000C948A0038
:100020000C948A000C948A000C948A000C948A0028
:100030000C948A000C948A000C948A000C948A0018
:100040000C9409020C948A000C9479020C945302CB
:100050000C948A000C948A000C948A000C948A00F8
:100060000C948A000C948A000000000023002600F3
:10007000290000000008000201000003040700003E
:1000800000000000000000000000250028002B00F8
:1000900000000000240027002A00040404040404D3
:1000A0000404020202020202030303030303010227
:1000B00004081020408001020408102001020408F6
:1000C0001020AB0211241FBECFEFD8E0DEBFCDBFA2
:1000D00011E0A0E0B1E0E2E5F9E002C005900D9288
:1000E000A035B107D9F722E0A0E5B1E001C01D922B
:1000F000AC30B207E1F710E0C2E6D0E004C02197CF
:10010000FE010E949C04C136D107C9F70E94440336
:100110000C94A7040C94000090E0FC01EE58FF4FF3
:100120002491FC01E255FF4F3491FC01E656FF4F4C
:10013000E491EE23B9F1222339F1233091F038F420
:100140002130A9F0223001F584B58F7D12C027300F
:1001500091F02830A1F02430B9F4809180008F7D97
:1001600003C0809180008F77809380000DC084B59C
:100170008F7784BD09C08091B0008F7703C08091D4
:10018000B0008F7D8093B000F0E0EE0FFF1FE859C4
:10019000FF4FA591B491EC91E32381E090E021F42D
:1001A00080E0089580E090E00895CF92DF92EF9292
:1001B000FF920F931F93CF93DF936C017A018B0112
:1001C000C0E0D0E0CE15DF0581F0D8016D918D0142
:1001D000D601ED91FC910190F081E02DC6010995C9
:1001E000892B11F02196EECF7E01C701DF91CF91CF
:1001F0001F910F91FF90EF90DF90CF900895089599
:1002000080E090E00895FC01538D448D252F30E06F
:10021000842F90E0821B930B541710F0CF96089513
:1002200001970895FC01918D828D981761F0828D60
:10023000DF01A80FB11D5D968C91928D9F5F9F731A
:10024000928F90E008958FEF9FEF0895FC01918DBC
:10025000828D981731F0828DE80FF11D858D90E029
:1002600008958FEF9FEF0895FC01918D228D892FC6
:1002700090E0805C9F4F821B91098F7399270895AE
:1002800089E591E00E94340121E0892B09F420E006
:10029000822F0895FC01848DDF01A80FB11DA35AA0
:1002A000BF4F2C91848D90E001968F739927848F96
:1002B000A689B7892C93A089B1898C9183708064B9
:1002C0008C93938D848D981306C00288F389E02D5A
:1002D00080818F7D80830895EF92FF920F931F930B
:1002E000CF93DF93EC0181E0888F9B8D8C8D9813E9
:1002F00005C0E889F989808185FD26C0F62E0B8D21
:1003000010E00F5F1F4F0F731127E02E8C8DE81246
:100310000CC00FB607FCFACFE889F989808185FF08
:10032000F5CFCE010E944A01F1CF8B8DFE01E80F7F
:10033000F11DE35AFF4FF0829FB7F8940B8FEA89C3
:10034000FB89808180620AC09FB7F894EE89FF899B
:100350006083E889F98980818370806480839FBF8E
:1003600081E090E0DF91CF911F910F91FF90EF908E
:100370000895CF93DF93EC01888D8823C9F0EA8933
:10038000FB89808185FD05C0A889B9898C9186FD8E
:100390000FC00FB607FCF5CF808185FFF2CFA8898B
:1003A000B9898C9185FFEDCFCE010E944A01E7CF3C
:1003B000DF91CF91089580E090E0892B29F00E9491
:1003C000400181110C9400000895CF93DF930097B2
:1003D00079F0FC0101900020E9F73197AF01481B4B
:1003E000590BBC0189E591E00E94D500EC0102C0E7
:1003F000C0E0D0E042E050E062E171E089E591E0E8
:100400000E94D5008C0F9D1FDF91CF9108950E940F
:10041000A2041F920F920FB60F9211242F933F93B5
:100420008F939F93AF93BF93809155019091560105
:10043000A0915701B09158013091540123E0230F4E
:100440002D3720F40196A11DB11D05C026E8230F0C
:100450000296A11DB11D20935401809355019093E4
:100460005601A0935701B09358018091500190918B
:100470005101A0915201B09153010196A11DB11DEE
:100480008093500190935101A0935201B093530176
:10049000BF91AF919F918F913F912F910F900FBE80
:1004A0000F901F9018951F920F920FB60F92112464
:1004B0002F933F934F935F936F937F938F939F936C
:1004C000AF93BF93EF93FF9389E591E00E944A01B8
:1004D000FF91EF91BF91AF919F918F917F916F911C
:1004E0005F914F913F912F910F900FBE0F901F90F2
:1004F00018951F920F920FB60F9211242F938F937E
:100500009F93EF93FF93E0916901F0916A018081DD
:10051000E0916F01F091700182FD12C09081809195
:1005200072018F5F8F7320917301821751F0E091F8
:100530007201F0E0E75AFE4F958F8093720101C07F
:100540008081FF91EF919F918F912F910F900FBE1E
:100550000F901F901895CF93DF9310925C0110922B
:100560005B0188EE93E0A0E0B0E080935D019093A2
:100570005E01A0935F01B093600184E091E09093ED
:100580005A018093590185EC90E090936601809325
:10059000650184EC90E0909368018093670180ECA2
:1005A00090E090936A018093690181EC90E09093D0
:1005B0006C0180936B0182EC90E090936E018093CC
:1005C0006D0186EC90E09093700180936F01109222
:1005D000720110927301109274011092750187E0FC
:1005E00090E09093F7018093F6011092F801109239
:1005F000F9011092FA011092FB011092FC01109285
:10060000FD011092FE011092FF0110920102109262
:100610000002E5EBF0E02491E1EAF0E08491882328
:10062000C1F090E0880F991FFC01E057FF4FC59182
:10063000D491FC01EA57FF4FA591B4919FB7F8946C
:100640008881322F309583238883EC91E22BEC93C1
:100650009FBF8091F6010E948C00909303028093CB
:100660000202909305028093040290930702809304
:100670000602109208021092090210920A021092C9
:100680000B02DF91CF910895789484B5826084BD88
:1006900084B5816084BD85B5826085BD85B5816086
:1006A00085BD80916E00816080936E001092810004
:1006B00080918100826080938100809181008160BF
:1006C0008093810080918000816080938000809180
:1006D000B10084608093B1008091B000816080930C
:1006E000B00080917A00846080937A0080917A00D3
:1006F000826080937A0080917A00816080937A0092
:1007000080917A00806880937A001092C100E09115
:100710006901F0916A0182E08083E0916501F091C6
:1007200066011082E0916701F09168018FEC80838F
:1007300010927101E0916D01F0916E0186E080836D
:10074000E0916B01F0916C01808180618083E09188
:100750006B01F0916C01808188608083E0916B0176
:10076000F0916C01808180688083E0916B01F09151
:100770006C0180818F7D808382E390E0A0E0B0E017
:100780008093F8019093F901A093FA01B093FB01D3
:100790008091F6010E948C002FB7F894409155018A
:1007A0005091560160915701709158012FBF2091CF
:1007B0000602309107028217930761F04093080206
:1007C0005093090260930A0270930B029093070200
:1007D00080930602009108021091090220910A02FA
:1007E00030910B02401B510B620B730B0091F8010F
:1007F0001091F9012091FA013091FB014017510746
:100800006207730760F02091040230910502309373
:1008100003022093020290930502809304028091C8
:100820000202909103022091040230910502821786
:10083000930709F455C040910002509101024230E3
:100840005105A9F44091FC015091FD016091FE0118
:100850007091FF014F5F5F4F6F4F7F4F4093FC01DF
:100860005093FD016093FE017093FF0139C0411563
:100870005105C9F40197C1F5232B09F045C08091BA
:10088000FC019091FD01A091FE01B091FF01019644
:10089000A11DB11D8093FC019093FD01A093FE0169
:1008A000B093FF0141C041305105D1F4009709F0E8
:1008B00040C021303105F1F48091FC019091FD019F
:1008C000A091FE01B091FF010196A11DB11D809381
:1008D000FC019093FD01A093FE01B093FF010AC0BB
:1008E000019711F4232B01F18091020290910302F0
:1008F000892B51F48091040290910502019769F4CB
:100900008EE391E00E94E50180910402909105023E
:10091000019719F485E191E002C081E291E00E9423
:10092000E5010E94DB0134CF8CE291E00E94E501F9
:10093000DBCF019749F7D6CFEE0FFF1F0590F4915B
:10094000E02D099481E090E0F8940C94A704F894C9
:02095000FFCFD7
:10095200000000006C01D5000301B901340112014D
:1009620026010D0A005377697463683A204F4646A0
:10097200005377697463683A204F4E005377697465
:1009820063683A204F4646202D3E204F4E00537753
:10099200697463683A204F4E202D3E204F46460030
:107E0000112484B714BE81FFF0D085E080938100F7
:107E100082E08093C00088E18093C10086E0809377
:107E2000C20080E18093C4008EE0C9D0259A86E02C
:107E300020E33CEF91E0309385002093840096BBD3
:107E4000B09BFECF1D9AA8958150A9F7CC24DD24C4
:107E500088248394B5E0AB2EA1E19A2EF3E0BF2EE7
:107E6000A2D0813461F49FD0082FAFD0023811F036
:107E7000013811F484E001C083E08DD089C08234E0
:107E800011F484E103C0853419F485E0A6D080C0E4
:107E9000853579F488D0E82EFF2485D0082F10E0AE
:107EA000102F00270E291F29000F111F8ED06801E7
:107EB0006FC0863521F484E090D080E0DECF843638
:107EC00009F040C070D06FD0082F6DD080E0C81688
:107ED00080E7D80618F4F601B7BEE895C0E0D1E017
:107EE00062D089930C17E1F7F0E0CF16F0E7DF06D8
:107EF00018F0F601B7BEE89568D007B600FCFDCFD4
:107F0000A601A0E0B1E02C9130E011968C91119780
:107F100090E0982F8827822B932B1296FA010C0160
:107F200087BEE89511244E5F5F4FF1E0A038BF0790
:107F300051F7F601A7BEE89507B600FCFDCF97BE46
:107F4000E89526C08437B1F42ED02DD0F82E2BD052
:107F50003CD0F601EF2C8F010F5F1F4F84911BD097
:107F6000EA94F801C1F70894C11CD11CFA94CF0C13
:107F7000D11C0EC0853739F428D08EE10CD085E9AC
:107F80000AD08FE07ACF813511F488E018D01DD067
:107F900080E101D065CF982F8091C00085FFFCCF94
:107FA0009093C60008958091C00087FFFCCF809118
:107FB000C00084FD01C0A8958091C6000895E0E648
:107FC000F0E098E1908380830895EDDF803219F02E
:107FD00088E0F5DFFFCF84E1DECF1F93182FE3DFCA
:107FE0001150E9F7F2DF1F91089580E0E8DFEE27F6
:047FF000FF270994CA
:027FFE00040479
:0400000300007E007B
:00000001FF
